:020000040800F2
:100000000028002039390008F1030008F303000834
:10001000F5030008F7030008F903000800000000DA
:10002000000000000000000000000000FB030008CA
:10003000FD03000800000000FF03000801040008A1
:1000400081390008813900088139000881390008A8
:100050008139000881390008813900088139000898
:100060008139000881390008813900088139000888
:100070008139000881390008813900088139000878
:100080000D0400080F04000881390008110400085D
:1000900021040008813900088139000881390008ED
:1000A0008139000881390008813900088139000848
:1000B00081390008813900080000000081390008FA
:1000C00081390008000000000000000081390008AC
:1000D0000000000081390008310400080000000021
:1000E00081390008813900088139000800000000CA
:1000F0000000000000000000000000000000000000
:0C01000000000000000000005FF808F1A3
:10010C0010B5054C237833B9044B13B10448AFF345
:10011C0000800123237010BDEC01002000000000C2
:10012C002C48000808B5034B1BB103490348AFF337
:10013C00008008BD00000000F00100202C480008E1
:10014C0082B00A4B9A6942F020029A619A6902F0D5
:10015C0020020092009A9A6942F004029A619B690B
:10016C0003F004030193019B02B07047001002409E
:10017C00FEE7000000B595B001220A924FF48033DF
:10018C000B9300210C910E920222119212934FF4B8
:10019C00801313930AA801F055F858BB0F2305934D
:1001AC0002230693002307934FF48062089209936D
:1001BC00012105A801F06CFA00BB102301934FF448
:1001CC008003049301A801F045FBD8B901F01CFB96
:1001DC000E4BA3FB0030800900F058FA042000F00D
:1001EC006BFA002211464FF0FF3000F00FFA15B0F9
:1001FC005DF804FBAF210648FFF7BAFFBD210448A8
:10020C00FFF7B6FFC4210248FFF7B2FFD34D6210CF
:10021C007048000808B500F0AFF9FFF7ABFFFFF727
:10022C008FFF00F049F903F075F800F063F91148FD
:10023C0003F0D4FB104B93F8FC31032BFAD10020C4
:10024C0003F07AF970B10D4803F0C8FB41F2883025
:10025C0000F0B6F9012003F06FF938B1084803F04B
:10026C00BDFBFEE7074803F0B9FBEFE7064803F0D8
:10027C00B5FBF6E784480008B41000209C48000841
:10028C00E8480008C84800081049000800B583B0C9
:10029C00244B9A6942F001029A619A6902F00102B8
:1002AC000092009ADA6942F08052DA61DB6903F05D
:1002BC0080530193019B032000F096F90022114614
:1002CC006FF00B0000F0A2F9002211466FF00A004B
:1002DC0000F09CF9002211466FF0090000F096F92D
:1002EC00002211466FF0040000F090F90022114634
:1002FC006FF0030000F08AF9002211466FF0010044
:10030C0000F084F9002211464FF0FF3000F07EF926
:10031C00054A536823F0E06343F08063536003B0F5
:10032C005DF804FB001002400000014030B587B0BE
:10033C000368284A934204D0274A934222D007B03C
:10034C0030BD264B9A6942F480429A619B6903F452
:10035C0080430093009B4FF400730293022303939A
:10036C00032305931E4C02A9204600F007FA4FF414
:10037C008063029300230393049302A9204600F0A8
:10038C00FDF9DCE7154BDA6942F40032DA61DB691E
:10039C0003F400330193019B042302930223039380
:1003AC00032305930E4D02A9284600F0E7F9082314
:1003BC0002930024039404940DEB0301284600F0EF
:1003CC00DDF922462146262000F020F9262000F0F7
:1003DC0051F9B4E7003801400044004000100240DD
:1003EC00000801407047FEE7FEE7FEE7FEE77047B6
:1003FC007047704708B500F0D1F800F06EF908BDF1
:10040C007047704708B5024800F0E9FD08BD00BF11
:10041C00D812002008B5024800F0E1FD08BD00BF6D
:10042C00D812002008B5024801F0E4FC08BD00BF5A
:10043C006C1000200F4B1A6842F001021A605968C8
:10044C000D4A0A405A601A6822F0847222F48032F3
:10045C001A601A6822F480221A605A6822F4FE028A
:10046C005A604FF41F029A60044B4FF000629A607E
:10047C00704700BF001002400000FFF800ED00E0E4
:10048C0010B50138012809D814464FF47A7392B28A
:10049C00074801F0E1FB40B1002010BD03F06CFAFD
:1004AC00044B03604FF0FF30F7E72046F5E700BF41
:1004BC00400A0020DFBA0E0008B50B480B4B036056
:1004CC004FF4E133436000238360C36003610C226B
:1004DC0042618361C36101F090FB00B908BD282122
:1004EC000348FFF745FEF9E7400A002000380140B9
:1004FC003049000808B50B480B4B03604FF4E1334F
:10050C00436000238360C36003610C2242618361FA
:10051C00C36101F072FB00B908BD3B210348FFF732
:10052C0027FEF9E76C100020004400403049000819
:10053C0010B504460E4B18784FF47A73B3FBF0F3F6
:10054C000C4A1068B0FBF3F000F0A0F868B90F2C5F
:10055C0001D901200AE0002221464FF0FF3000F0C3
:10056C0055F8034B5C60002000E0012010BD00BF7B
:10057C00040000200000002008B5074A136843F06F
:10058C0010031360032000F02FF80020FFF7D0FFBA
:10059C00FFF77CFE002008BD00200240034A1168D2
:1005AC00034B1B780B441360704700BFB010002046
:1005BC0004000020014B1868704700BFB0100020E9
:1005CC0038B50446FFF7F6FF0546B4F1FF3F02D0FD
:1005DC00044B1B781C44FFF7EDFF401BA042FAD3E1
:1005EC0038BD00BF04000020074AD36823F4E06341
:1005FC001B041B0C000200F4E060184340F0BF60C9
:10060C0040F40030D060704700ED00E030B4174B80
:10061C00DB68C3F30223C3F10704042C28BF0424B2
:10062C001D1D062D18D9033B4FF0FF3505FA04F4B8
:10063C0021EA0401994005FA03F322EA0303194362
:10064C0000280BDB0901C9B200F1604000F56140E4
:10065C0080F8001330BC70470023E5E700F00F0072
:10066C000901C9B2024B1954F4E700BF00ED00E0D8
:10067C0014ED00E000F01F02400901239340024AF0
:10068C0042F82030704700BF00E100E00138B0F1C3
:10069C00807F0AD2064B5860064AF02182F823105C
:1006AC000020986007221A6070470120704700BF35
:1006BC0010E000E000ED00E0042805D0054A1368C6
:1006CC0023F0040313607047024A136843F00403D9
:1006DC001360704710E000E0704708B5FFF7FCFFAF
:1006EC0008BD000008B590F82130022B03D004237C
:1006FC008363012008BD0268136823F00E031360A6
:10070C000268136823F0010313600368194A9342CB
:10071C0014D0143293421FD0143293421ED0143290
:10072C0093421ED0143293421ED01432934202D004
:10073C004FF0807203E04FF4801200E001220E4B68
:10074C005A60012380F82130002380F82030436B5D
:10075C006BB198470020CDE71022F0E74FF4807280
:10076C00EDE74FF48052EAE74FF48032E7E70020E0
:10077C00C0E700BF0800024000000240F0B482B0A5
:10078C000026354668E0002C00F09680012C00D144
:10079C00CE68FF2B00F2A4808446FF2B00F2A380CE
:1007AC00AC00DCF800200F27A74022EA070206FA6B
:1007BC0004F42243CCF800204A6812F0805F4AD03F
:1007CC005B4A946944F001049461926902F001025D
:1007DC000192019AAC08A71C564A52F8272005F042
:1007EC000307BF004FF00F0C0CFA07FC22EA0C0CAD
:1007FC00514A90427DD002F5806290427BD002F546
:10080C008062904273D00322BA4042EA0C02023456
:10081C00484F47F824204A6812F4803F6DD0474C6B
:10082C0022681A4322604A6812F4003F6BD0434C92
:10083C0062681A4362604A6812F4801F69D03F4CA8
:10084C00A2681A43A2604A6812F4001F67D03B4C9E
:10085C00E2681343E36001350F2D66D80122AA40EC
:10086C000B6813409A42F6D14C68122C2ED009D842
:10087C00022C28D087D9032C2ED0112C89D1CE68EC
:10088C00043686E72E4FBC4216D00CD92D4FBC42F5
:10089C0012D007F58037BC420ED0A7F58017BC42AA
:1008AC007FF477AF08E0A7F58017BC4204D007F5BA
:1008BC008037BC427FF46DAF8C687CB1012C08D0C2
:1008CC004261082665E7CE68083662E7CE680C36CA
:1008DC005FE7026108265CE700265AE7042658E722
:1008EC0000F1040C59E7A5F10804A40059E7022211
:1008FC008AE7002288E7012286E7104C226822EA68
:10090C00030222608FE70D4C626822EA03026260E8
:10091C0091E70A4CA26822EA0302A26093E7074C13
:10092C00E26822EA0303E36095E702B0F0BC70478B
:10093C00001002400000014000080140000401408A
:10094C00000021100000311012B909040161704738
:10095C0001617047002866D0F0B587B0044690F866
:10096C002934C3B1032384F82934206801F0E9FA4F
:10097C00254655F8107B6E460FCD0FC62B6833609D
:10098C00231D0ECB384601F0CDFA0021206801F072
:10099C00E2FA002315E080F8283402F0E1FDE1E7EB
:1009AC0004EB4312012182F8291082F82830938637
:1009BC00002182F82B109163D1639A1C5201A15033
:1009CC0001330E2BECD9002312E004EB431200216F
:1009DC0082F8291282F82832938682F82B12C2F8F8
:1009EC003812C2F83C1203F112025201A150013329
:1009FC000E2BEAD9254655F8107B6E460FCD0FC647
:100A0C002B683360231D0ECB384601F0A6FA002567
:100A1C0084F82450012384F82934206801F0B1FDB6
:100A2C00284607B0F0BD0120704790F82834012B00
:100A3C0010D010B50446012180F8281402F0F2FE03
:100A4C00206801F09CFD206801F073FA002084F806
:100A5C00280410BD0220704790F82834012B0DD0CB
:100A6C0010B50446012380F8283480F8241000685F
:100A7C0001F07FFD002084F8280410BD022070478F
:100A8C0038B54DB2002D1CDB01F07F04640104F578
:100A9C000A74044401F07F012170ED0F657022612E
:100AAC00E37090F82834012B11D00546012380F80F
:100ABC0028342146006801F066FA002085F82804E5
:100ACC0038BD01F07F04640128340444E2E70220BD
:100ADC00F6E74AB2002A1BDB01F07F035B0103F54A
:100AEC000A73034401F07F011970D20F5A7090F809
:100AFC002824012A12D010B50446012280F828249B
:100B0C001946006801F0D3FB002084F8280410BDBE
:100B1C0001F07F035B0128330344E3E702207047B5
:100B2C0070B501F07F056C0104F50A7101440444B1
:100B3C00C4F83C2205F1120252018618835000239E
:100B4C00736084F8293284F8285225B1006801F0CA
:100B5C0034FD002070BD006801F02FFDF9E770B581
:100B6C0001F07F056C0104F1280101440444E263A7
:100B7C00AA1C52018618835000237360012384F849
:100B8C00293084F8285025B1006801F016FD0020AA
:100B9C0070BD006801F011FDF9E770B582B0044634
:100BAC000023ADF80630ADF804302068B0F84430BE
:100BBC009BB2ADF8063013F4004F00F00D82BDF877
:100BCC00065015F00F0540F0C280BDF8063013F04A
:100BDC00100F50D003889BB2ADF80430BDF8043030
:100BEC0013F4006F79D1BDF8043013F4004FDCD04E
:100BFC00038823F070031B051B0D03802068B0F8DD
:100C0C00503094F8282203EBC203063300EB430365
:100C1C00D3F80034C3F30903C4F84432002B7CD15D
:100C2C000021204602F0ECFC2368B3F85020063279
:100C3C0003EB4203D4F838123E297CD9C1F34F128E
:100C4C0011F01F0F01D1013A92B26FEAC2626FEA42
:100C5C00524292B2C3F80024226813889BB223F448
:100C6C00804323F0700383F4405343F4004343F078
:100C7C008003138099E703889BB223F4E14323F0AC
:100C8C0070039BB203802268B2F8503094F828109D
:100C9C0003EBC103023302EB4303D3F80034C3F379
:100CAC0009036364E26B1344E3630021204602F002
:100CBC00B1FC94F82430002B3FF477AF236C002B5D
:100CCC007FF473AF94F82430226843F08003A2F8C9
:100CDC004C30002384F8243067E7B0F8503094F897
:100CEC00282203EBC203063300EB4303D3F8003492
:100CFC00C3F30903C4F84432B4F82C2204F22C4197
:100D0C0001F0B8FD2268138823F070031B051B0D3E
:100D1C001380204602F06CFC47E7B4F82C22D4F880
:100D2C003C1201F0A7FDD4F84422D4F83C32134411
:100D3C00C4F83C3274E7C1F34F0211F0010F01D03B
:100D4C00013292B2920292B2C3F8002484E730F8D6
:100D5C0025309BB2ADF80430BDF8043013F4004FCD
:100D6C0035D1BDF8043013F0800F3FF41EAF22686C
:100D7C0032F825309BB223F4E14323F070039BB28D
:100D8C0022F8253004EB451393F83230002B40F059
:100D9C00B2802068B0F8503004EB451292F828204D
:100DAC0003EBC203023300EB4303D3F80034C3F369
:100DBC000903AA1C04EB42125360002B00F0C680FE
:100DCC0004EB45118A8DC96B01F0E2FBBEE030F8F3
:100DDC00253023F070031B051B0D20F8253004EB88
:100DEC00451393F83232D3B92068B0F8503004EB85
:100DFC00451292F8282203EBC203063300EB43039F
:100E0C00B3F80064C6F3090686B304EB4511334608
:100E1C00B1F82C22D1F83C1201F02CFD26E0206810
:100E2C0004EB451393F8282230F8223013F4804F4A
:100E3C0042D0B0F8503003EBC203023300EB430353
:100E4C00B3F80064C6F3090666BB226804EB4513CD
:100E5C0093F8281232F8213023F0F0031B051B0DF8
:100E6C0043F4004343F0C00322F8213005F1120390
:100E7C005B01E1184A6832444A6004EB4511D1F831
:100E8C003C223244C1F83C22E3581BB1D1F8381251
:100E9C008E4228D204EB451393F82812204602F018
:100EAC00AFFB5EE704EB45113346B1F82E22D1F8C7
:100EBC003C1201F0DFFCC8E7B0F8503003EBC20382
:100ECC00063300EB4303B3F80064C6F30906002EA7
:100EDC00BBD004EB45113346B1F83022D1F83C12AB
:100EEC0001F0C8FCB1E704EB451191F8281220463B
:100EFC00FFF716FE35E7206804EB451393F828201E
:100F0C0030F8223013F0400F46D0B0F8503003EBDD
:100F1C00C203023300EB4303D3F80034C3F30903D9
:100F2C00AA1C04EB421253607BBB226804EB4513F2
:100F3C0093F8281032F8213023F0F0031B051B0D19
:100F4C0043F4404343F0800322F821302268B2F886
:100F5C00503004EB451090F8281003EBC10302331A
:100F6C0002EB4303D3F80024C2F30902AB1C5B0170
:100F7C00E1184A60C16B0A44C263E35823BB90F882
:100F8C002810204602F046FB0FE604EB4511CA8DF3
:100F9C00C96B01F0FDFAC8E7B0F8503003EBC2039F
:100FAC00063300EB4303D3F80034C3F30903AA1C44
:100FBC0004EB42125360002BB7D004EB45110A8EA0
:100FCC00C96B01F0E5FAB0E704EB451595F828106C
:100FDC002046FFF7C4FDE8E5002002B070BD10B557
:100FEC000446006801F0CFFA10F4004F45D1206898
:100FFC0001F0C9FA10F4806F43D1206801F0C3FAF4
:10100C0010F4804F08D02268B2F844309BB223F41D
:10101C0080439BB2A2F84430206801F0B4FA10F47B
:10102C00005F08D02268B2F844309BB223F400531E
:10103C009BB2A2F84430206801F0A5FA10F4805F4E
:10104C0030D1206801F09FFA10F4006F49D120686C
:10105C0001F099FA10F4007F64D1206801F093FA42
:10106C0010F4807F08D02268B2F844309BB223F48D
:10107C0080739BB2A2F8443010BD2046FFF78DFD63
:10108C00B5E72268B2F844309BB223F480639BB27C
:10109C00A2F84430204602F0CCFA00212046FFF79B
:1010AC00DBFCAAE72268B2F840309BB223F00403C1
:1010BC009BB2A2F840302268B2F840309BB223F0C9
:1010CC0008039BB2A2F84030204602F0CFFA226807
:1010DC00B2F844309BB223F480539BB2A2F8443054
:1010EC00AFE72268B2F8403043F00803A2F8403072
:1010FC002268B2F844309BB223F400639BB2A2F88E
:10110C0044302268B2F8403043F00403A2F8403077
:10111C00206801F038FA10F4805F98D1204602F074
:10112C0095FA94E72268B2F844309BB223F400732A
:10113C009BB2A2F84430204602F075FA8DE738B520
:10114C004AB2002A1BDB4B0103F50A73034401244A
:10115C009C7001F07F051D70D20F5A7090F82824F6
:10116C00A24218D00446012280F8282419460068AF
:10117C0001F07FF94DB1002084F8280438BD01F04E
:10118C007F035B0128330344E1E704F22C41206820
:10119C0001F0FCF9EFE70220F0E710B54AB2002AA3
:1011AC001ADB4B0103F50A73034400249C7001F015
:1011BC007F011970D20F5A7090F82824012A11D08F
:1011CC000446012280F828241946006801F088F9A9
:1011DC00002084F8280410BD01F07F035B01283344
:1011EC000344E2E70220F6E711F0800F0CD001F087
:1011FC007F014901283101445AB101228A72CB8006
:10120C001B0C0B8100207047490101F50A71014448
:10121C00F2E78A728B80F5E782B0084B1B68084AAC
:10122C00A2FB03235B0A00FB03F0019000BF019BB0
:10123C005A1E0192002BF9D102B070470000002019
:10124C00D34D621070B582B00446036813F0010FE1
:10125C002CD0AB4B5B6803F00C03042B1DD0A84BBC
:10126C005B6803F00C03082B12D06368B3F5803F66
:10127C0041D0002B55D103F1804303F504331A6898
:10128C0022F480321A601A6822F480221A6037E045
:10129C009B4B5B6813F4803FE7D0994B1B6813F4AE
:1012AC00003F03D06368002B00F0AE81236813F07D
:1012BC00020F76D0924B5B6813F00C0F5FD0904B03
:1012CC005B6803F00C03082B54D02369002B00F04F
:1012DC008A808C4B01221A60FFF76CF90546884B0B
:1012EC001B6813F0020F75D1FFF764F9401B02283D
:1012FC00F5D903208BE1824A136843F480331360E1
:10130C00636843B3FFF756F905467D4B1B6813F42E
:10131C00003FCBD1FFF74EF9401B6428F5D90320D1
:10132C0075E1B3F5A02F09D0754B1A6822F4803201
:10133C001A601A6822F480221A60E1E703F18043F4
:10134C00A3F53C331A6842F480221A601A6842F4FE
:10135C0080321A60D4E7FFF72DF90546684B1B68FD
:10136C0013F4003FA2D0FFF725F9401B6428F5D9F0
:10137C0003204CE1624B5B6813F4803FA5D1604BBA
:10138C001B6813F0020F04D02369012B01D001203C
:10139C003DE15B4A136823F0F803616943EAC1033A
:1013AC001360236813F0080F32D0A369002B5BD0B5
:1013BC00554B01221A60FFF7FDF80546504B5B6A4E
:1013CC0013F0020F21D1FFF7F5F8401B0228F5D9D5
:1013DC0003201CE14A4A136823F0F803616943EACD
:1013EC00C1031360DDE7474B00221A60FFF7E2F8F8
:1013FC000546434B1B6813F0020FD2D0FFF7DAF807
:10140C00401B0228F5D9032001E10120FFF704FF5E
:10141C00236813F0040F00F09780394BDB6913F04D
:10142C00805F33D1364BDA6942F08052DA61DB6986
:10143C0003F080530193019B0125344B1B6813F47B
:10144C00807F25D0E368012B36D0002B4CD103F1E3
:10145C00804303F504331A6A22F001021A621A6AF5
:10146C0022F004021A622CE0274B00221A60FFF7CC
:10147C00A1F80546224B5B6A13F0020FC8D0FFF7A8
:10148C0099F8401B0228F5D90320C0E00025D4E7C9
:10149C001E4A136843F480731360FFF78BF80646FB
:1014AC001A4B1B6813F4807FCCD1FFF783F8801B99
:1014BC006428F5D90320AAE0114A136A43F001030A
:1014CC001362E36873B3FFF775F806460C4B1B6A9F
:1014DC0013F0020F37D1FFF76DF8801B41F2883300
:1014EC009842F3D9032092E0052B11D0044B1A6AD1
:1014FC0022F001021A621A6A22F004021A62E0E770
:10150C000010024000004242800442420070004041
:10151C00414B1A6A42F004021A621A6A42F0010242
:10152C001A62CEE7FFF746F806463B4B1B6A13F0F0
:10153C00020F08D0FFF73EF8801B41F28833984227
:10154C00F3D9032063E0E5B9E369002B5ED0324A9E
:10155C00526802F00C02082A5BD0022B17D02F4BDA
:10156C0000221A60FFF726F804462B4B1B6813F079
:10157C00007F47D0FFF71EF8001B0228F5D9032087
:10158C0045E0254AD36923F08053D361DCE7234B34
:10159C0000221A60FFF70EF805461F4B1B6813F06C
:1015AC00007F06D0FFF706F8401B0228F5D9032070
:1015BC002DE0236AB3F5803F1AD017494B6823F40A
:1015CC007413226A606A024313434B60134B01226B
:1015DC001A60FEF7EFFF04460F4B1B6813F0007FF9
:1015EC000ED1FEF7E7FF001B0228F5D903200EE011
:1015FC00094A536823F40033A1680B435360DCE7BA
:10160C00002004E0002002E0012000E0002002B0F5
:10161C0070BD0120FBE700BF001002406000424299
:10162C0010B487B0164C94E80F000DF1180C0CE9AF
:10163C000F00238AADF80430124B5B6803F00C02E8
:10164C00082A1AD1C3F38342624412F8102C13F403
:10165C00803F05D10C4800FB02F007B010BC70476E
:10166C00084B5B68C3F34043634413F8143C0748CE
:10167C0000FB02F0B0FBF3F0EFE70448EDE700BF2E
:10168C005C4800080010024000093D0000127A007E
:10169C00594B1B6803F007038B420CD2564A136854
:1016AC0023F007030B431360136803F007038B420B
:1016BC0001D00120704770B5036813F0020F06D0FB
:1016CC004E4A536823F0F0038468234353600C465E
:1016DC000546036813F0010F52D04368012B23D049
:1016EC00022B28D0454A126812F0020F00F08280BB
:1016FC0042494A6822F0030213434B60FEF75AFF3B
:10170C0006466B68012B1DD0022B2AD03B4B5B6825
:10171C0013F00C0F34D0FEF74DFF801B41F28833D1
:10172C009842F3D9032064E0344A126812F4003F63
:10173C00DED101205DE0314A126812F0007FD7D172
:10174C00012056E02D4B5B6803F00C03042B17D0E3
:10175C00FEF730FF801B41F288339842F2D9032008
:10176C0047E0264B5B6803F00C03082B08D0FEF710
:10177C0021FF801B41F288339842F2D9032038E0D4
:10178C001D4B1B6803F00703A3420CD91A4A1368BC
:10179C0023F0070323431360136803F00703A342EA
:1017AC0001D0012025E02B6813F0040F06D0134A5A
:1017BC00536823F4E063E9680B4353602B6813F020
:1017CC00080F07D00D4A536823F46053296943EA84
:1017DC00C1035360FFF724FF084B5B68C3F303138B
:1017EC00074AD35CD840074B18600020FEF7A0FED8
:1017FC00002070BD0120FCE70020024000100240D8
:10180C004448000800000020014B1868704700BFD6
:10181C000000002008B5FFF7F7FF044B5B68C3F32B
:10182C000223034AD35CD84008BD00BF001002401D
:10183C005448000808B5FFF7E7FF044B5B68C3F397
:10184C00C223034AD35CD84008BD00BF001002403D
:10185C005448000870B582B00446036813F0010FB9
:10186C0034D03E4BDB6913F0805F48D13B4BDA69D7
:10187C0042F08052DA61DB6903F080530193019BE3
:10188C000125374B1B6813F4807F3AD0334B1B6A0E
:10189C0013F4407311D0626802F440729A420CD077
:1018AC002E4A136A23F440702E4901260E6000263E
:1018BC000E60106213F0010F37D1284A136A23F41B
:1018CC00407361680B431362002D3FD1236813F002
:1018DC00020F06D0214A536823F44043A1680B43FE
:1018EC005360236813F0100F35D01C4A536823F44F
:1018FC008003E1680B435360002002B070BD0025EB
:10190C00BFE7174A136843F480731360FEF752FE67
:10191C000646134B1B6813F4807FB7D1FEF74AFEC3
:10192C00801B6428F5D90320E7E7FEF743FE064643
:10193C000A4B1B6A13F0020FBFD1FEF73BFE801B54
:10194C0041F288339842F3D90320D6E7D36923F0C8
:10195C008053D361BAE70020CFE700BF00100240EC
:10196C0000700040400442420268D36823F4907334
:10197C00D3600268536923F001035361202380F87C
:10198C003A30704790F83930DBB2212B2AD183687A
:10199C00B3F5805F16D0036A5A1C02621A7803688A
:1019AC005A60C38C013B9BB2C384EBB90268D36809
:1019BC0023F08003D3600268D36843F04003D36004
:1019CC0000207047036A1B880268C3F30803536046
:1019DC0003691BB9036A02330362E2E7036A01334A
:1019EC000362DEE702207047002070472DE9F843C0
:1019FC0005460268136923F44053C1680B43136115
:101A0C00836802691343426913430168CA6822F46C
:101A1C00B05222F00C021343CB600268536923F4DA
:101A2C00407381690B4353610268594B9A4257D0FA
:101A3C00FFF7F0FE00EB800000EB80006C68A40068
:101A4C00B0FBF4F4534FA7FB043464092601FFF7F1
:101A5C00E1FE00EB800000EB80006C68A400B0FBA2
:101A6C00F4F9FFF7D7FE00EB800000EB80006C6808
:101A7C00A400B0FBF4F4A7FB043464094FF0640831
:101A8C0008FB149424013234A7FB0434640904F0D9
:101A9C00F0043444FFF7BEFE00EB800000EB800046
:101AAC006E68B600B0FBF6F6FFF7B4FE00EB8000F4
:101ABC0000EB80006B689B00B0FBF3F0A7FB0030E1
:101ACC00400908FB10684FEA081808F13208A7FB18
:101ADC000837C7F343172B6827449F60BDE8F8838A
:101AEC00FFF7A8FE00EB800000EB80006C68A40000
:101AFC00B0FBF4F4274FA7FB043464092601FFF76D
:101B0C0099FE00EB800000EB80006C68A400B0FB39
:101B1C00F4F9FFF78FFE00EB800000EB80006C689F
:101B2C00A400B0FBF4F4A7FB043464094FF0640880
:101B3C0008FB149424013234A7FB0434640904F028
:101B4C00F0043444FFF776FE00EB800000EB8000DD
:101B5C006E68B600B0FBF6F6FFF76CFE00EB80008B
:101B6C0000EB80006B689B00B0FBF3F0A7FB003030
:101B7C00400908FB10684FEA081808F13208A7FB67
:101B8C000837C7F343172B6827449F60A6E700BFAD
:101B9C00003801401F85EB512DE9F04105460F46F9
:101BAC0016469846069C2B681B6837EA03030CBF45
:101BBC0001230023B3421DD1B4F1FF3FF3D02CB16C
:101BCC00FEF7F8FCA0EB0800A042ECD92A68D36819
:101BDC0023F4D073D3602A68536923F00103536153
:101BEC00202385F8393085F83A30002385F83830D1
:101BFC00032000E00020BDE8F08158B310B5044686
:101C0C0090F839300BB3242384F839302268D36828
:101C1C0023F40053D3602046FFF7E8FE22681369D3
:101C2C0023F4904313612268536923F02A03536110
:101C3C002268D36843F40053D3600020E063202370
:101C4C0084F8393084F83A3010BD80F83830FEF71B
:101C5C006DFBD8E7012070472DE9F04182B01E469C
:101C6C0090F83930DBB2202B55D104460D46904606
:101C7C00002955D0002A55D090F83830012B53D07C
:101C8C00012380F838300023C363212380F83930D6
:101C9C00FEF790FC0746A4F82480A4F8268010E0F8
:101CAC0000963B46002280212046FFF775FF002856
:101CBC003CD12B882268C3F3080353602369C3B952
:101CCC000235E38C9BB2B3B1E38C013B9BB2E38452
:101CDC00A368B3F5805FE3D000963B4600228021D9
:101CEC002046FFF759FF18BB2A7823685A60013544
:101CFC00E7E70135E5E700963B4600224021204608
:101D0C00FFF74AFF0346A8B9202284F839200022A5
:101D1C0084F8382000E00223184602B0BDE8F081B8
:101D2C000123F9E70123F7E70223F5E70323F3E7A0
:101D3C000323F1E70323EFE7704708B50168CB688D
:101D4C0023F04003CB60202380F83930FFF7F4FFF9
:101D5C00002008BD704708B590F83A30DBB2222B52
:101D6C0045D18368B3F5805F0ED0036903BB03686C
:101D7C005A68836A591C81621A70C38D013B9BB2ED
:101D8C00C385F3B1002033E0826A036943B9036869
:101D9C005B68C3F308031380836A02338362ECE746
:101DAC0003685B68DBB21380836A01338362E4E708
:101DBC0003685B68826A511C816203F07F031370B5
:101DCC00DBE70268D36823F02003D3600268D36892
:101DDC0023F48073D3600268536923F001035361C9
:101DEC00202380F83A30FFF7B5FF002000E00220F6
:101DFC0008BD704710B5044602681368D168526973
:101E0C0013F00F0005D113F0200F02D011F0200FAA
:101E1C0053D1002867D012F0010202D111F4907F47
:101E2C0061D013F0010F06D011F4807F03D0E06B6A
:101E3C0040F00100E06313F0040F04D01AB1E06B22
:101E4C0040F00200E06313F0020F04D01AB1E06B13
:101E5C0040F00400E06313F0080F04D01AB1E26BF9
:101E6C0042F00802E263E26B002A48D013F0200F24
:101E7C0002D011F0200F24D123685B6903F04003DA
:101E8C00E26B12F0080F00D13BB32046FFF76CFD5C
:101E9C0023685A6912F0400F1BD05A6922F0400295
:101EAC005A61636B8BB11A4A5A63606BFEF71AFC6A
:101EBC0028B3606B436B984721E02046FFF74BFF3C
:101ECC001DE02046FFF747FFD6E72046FFF791FFBE
:101EDC0015E02046FFF78DFF11E02046FFF789FF44
:101EEC000023E3630BE013F0800F02D011F0800F9E
:101EFC0006D113F0400F02D011F0400F04D110BDE9
:101F0C002046FFF73FFDFAE72046FFF716FFF6E7FE
:101F1C00211F000808B5406A0023C385C384FFF75E
:101F2C0068FF08BD84B001A880E80E00002004B052
:101F3C007047B0F8403043F43F43A0F840300020E5
:101F4C007047B0F8403023F474535B045B0CA0F87A
:101F5C004030002070470020704784B038B505AC85
:101F6C0084E80E000123A0F840300024A0F8404083
:101F7C00A0F84440A0F85040FFF7DBFF2046BDE836
:101F8C00384004B0704710B4CB78032B0FD8DFE87F
:101F9C0003F0026D54600A7830F822309BB223F4BF
:101FAC00EC4323F0700343F4007320F822300A78DA
:101FBC0030F8223023F0F0031B051B0D134343F4C0
:101FCC00004343F0800320F822308B7A002B40F042
:101FDC00AF804B78002B56D08A885208B0F850301E
:101FEC000C7803EBC40300EB43035200C3F800244A
:101FFC000A7830F8223013F0400F0BD030F8223032
:10200C0023F0F0031B051B0D43F4004343F0C00306
:10201C0020F822300A7830F822309BB223F4E043C7
:10202C0023F0400383F0200343F4004343F0800388
:10203C0020F82230002010BC70470A7830F822308B
:10204C009BB223F4EC4323F070039BB220F82230B4
:10205C00ADE70A7830F822309BB223F4EC4323F03E
:10206C00700343F4C06320F82230A0E70A7830F8FC
:10207C0022309BB223F4EC4323F0700343F48063CF
:10208C0020F8223093E78A885208B0F850300C7848
:10209C0003EBC403043300EB43035200C3F80024E6
:1020AC00B0F850300A7803EBC203063300EB43035D
:1020BC000C693E2C30D9C4F34F1214F01F0F01D110
:1020CC00013A92B26FEAC2626FEA524292B2C3F81C
:1020DC0000240A7830F8223013F4804F0BD030F8FB
:1020EC00223023F0F0031B051B0D43F4404343F057
:1020FC00800320F822300A7830F822309BB223F487
:10210C00804323F0700383F4405343F4004343F0C3
:10211C00800320F822308DE7C4F34F0214F0010F36
:10212C0001D0013292B2920292B2C3F80024D0E7ED
:10213C000A7830F8223023F4F8731B051B0D43F496
:10214C00014343F0800320F82230CA885208B0F8CB
:10215C0050300C7803EBC40300EB43035200C3F87C
:10216C0000240A895208B0F850300C7803EBC403F1
:10217C00043300EB43035200C3F800244B78002BCC
:10218C004BD10A7830F8223013F4804F0BD030F852
:10219C00223023F0F0031B051B0D43F4404343F0A6
:1021AC00800320F822300A7830F8223013F0400FE8
:1021BC000BD030F8223023F0F0031B051B0D43F439
:1021CC00004343F0C00320F822300A7830F8223064
:1021DC0023F0F0031B051B0D43F4004343F0C00335
:1021EC0020F822300A7830F822309BB223F4804356
:1021FC0023F0700383F4405348F28004234320F807
:10220C0022300A7830F822309BB223F4E04323F0DA
:10221C004003234320F822300CE70A7830F82230B0
:10222C0013F4804F0BD030F8223023F0F0031B0551
:10223C001B0D43F4404343F0800320F822300A780E
:10224C0030F8223013F0400F0BD030F8223023F04E
:10225C00F0031B051B0D43F4004343F0C00320F8AF
:10226C0022300A7830F8223023F0F0031B051B0DC6
:10227C0043F4404343F0800320F822300B7830F8CD
:10228C00232092B222F4E04222F0400248F2800471
:10229C00224320F823200A7830F822309BB223F412
:1022AC00804323F07003234320F82230C2E68B7A5C
:1022BC00002B44D14B780BB30A7830F8223013F052
:1022CC00400F0BD030F8223023F0F0031B051B0D10
:1022DC0043F4004343F0C00320F822300A7830F86E
:1022EC0022309BB223F4E04323F0400343F4004339
:1022FC0043F0800320F82230002070470A7830F831
:10230C00223013F4804F0BD030F8223023F0F0033E
:10231C001B051B0D43F4404343F0800320F822308F
:10232C000A7830F822309BB223F4804323F07003F8
:10233C0043F4004343F0800320F82230DCE710B470
:10234C004B78002B4BD10A7830F8223013F4804FA5
:10235C000BD030F8223023F0F0031B051B0D43F497
:10236C00404343F0800320F822300A7830F82230C2
:10237C0013F0400F0BD030F8223023F0F0031B0584
:10238C001B0D43F4004343F0C00320F822300A78BD
:10239C0030F8223023F0F0031B051B0D43F40043EF
:1023AC0043F0C00320F822300B7830F8232092B28F
:1023BC0022F4804222F0700248F28004224320F87A
:1023CC0023200A7830F822309BB223F4E04323F028
:1023DC004003234320F82230002010BC70470A78B9
:1023EC0030F8223013F4804F0BD030F8223023F029
:1023FC00F0031B051B0D43F4404343F0800320F80E
:10240C0022300A7830F8223013F0400F0BD030F81D
:10241C00223023F0F0031B051B0D43F4004343F063
:10242C00C00320F822300A7830F8223023F0F00371
:10243C001B051B0D43F4404343F0800320F822306E
:10244C000B7830F8232092B222F4E04222F04002C2
:10245C0048F28004224320F823200A7830F82230F6
:10246C009BB223F4804323F07003234320F82230E3
:10247C00B2E70A788AB14B7813BB30F822309BB2A2
:10248C0023F4804323F0700383F4805343F400431C
:10249C0043F0800320F8223010E030F822309BB259
:1024AC0023F4804323F0400383F4805383F0100320
:1024BC0043F4004343F0800320F82230002070479F
:1024CC0030F822309BB223F4E04323F0400383F036
:1024DC00100343F4004343F0800320F82230EDE76F
:1024EC004B781BB30A7830F8223013F0400F0BD026
:1024FC0030F8223023F0F0031B051B0D43F400438E
:10250C0043F0C00320F822300A7830F822309BB216
:10251C0023F4E04323F0400383F0300343F40043FF
:10252C0043F0800320F82230002070470A7830F8FE
:10253C00223013F4804F0BD030F8223023F0F0030C
:10254C001B051B0D43F4404343F0800320F822305D
:10255C000A7830F822309BB223F4804323F07003C6
:10256C0083F4405343F4004343F0800320F82230BB
:10257C00DAE711B98023A0F84C3000207047002016
:10258C00704700207047B0F8440070470020704737
:10259C0001335B1000EB420202F5806263B110B4B0
:1025AC000C78487844EA002422F8044B0231013BB1
:1025BC00002BF5D110BC70477047F8B58A694D787F
:1025CC00012D34D00B69934280F0EA80D21A8A61D3
:1025DC008A7A002A40F0F480B0F850200C7802EB94
:1025EC00C402063200EB42023E2B40F2DD80C3F304
:1025FC004F1413F01F0F01D1013CA4B26FEAC46455
:10260C006FEA5444A4B2C2F800440A7830F822307D
:10261C009BB223F4804323F0700383F4405343F4C0
:10262C00004343F0800320F822300020F8BD0F69EE
:10263C00974225D2D21B8A610E4604468B7A1BB375
:10264C000B7830F8232012F0400F69D0002D37D1D1
:10265C00B0F8502002EBC303063300EB43033E2FCC
:10266C0022D9C7F34F1217F01F0F01D1013A92B2C2
:10267C006FEAC2626FEA524292B2C3F8002428E0B9
:10268C0000238B611746D7E7BBB28A884969FFF7ED
:10269C007FFFB4F85030327803EBC203023304EB03
:1026AC004303C3F800742AE0C7F34F0217F0010F7D
:1026BC0001D0013292B2920292B2C3F8002408E027
:1026CC00B0F8502002EBC303023300EB4303C3F812
:1026DC0000743289BBB271692046FFF759FF7378D9
:1026EC00002B4DD1327834F8223023F0F0031B0547
:1026FC001B0D43F4004343F0C00324F8223032781E
:10270C0034F822309BB223F4E04323F0400383F0EF
:10271C00300343F4004343F0800324F8223084E771
:10272C001DBBB0F8502002EBC303023300EB430394
:10273C003E2F0ED9C7F34F1217F01F0F01D1013ADC
:10274C0092B26FEAC2626FEA524292B2C3F80024AC
:10275C0014E0C7F34F0217F0010F01D0013292B20F
:10276C00920292B2C3F8002408E0B0F8502002EBB9
:10277C00C303023300EB4303C3F80074F288A9E7E8
:10278C00012BBCD1327834F8223023F0F0031B0536
:10279C001B0D43F4404343F0800324F82230AEE792
:1027AC0000238B61134613E7C3F34F0413F0010F9F
:1027BC0001D00134A4B2A402A4B2C2F8004424E7AC
:1027CC00BDB9B0F850200C7802EBC402023200EB19
:1027DC0042023E2B28D9C3F34F1413F01F0F01D123
:1027EC00013CA4B26FEAC4646FEA5444A4B2C2F8C8
:1027FC0000444A7882BBB0F850200C7802EBC4023B
:10280C00063200EB42023E2B1AD9C3F34F1413F0DD
:10281C001F0F01D1013CA4B26FEAC4646FEA5444A7
:10282C00A4B2C2F80044F0E6C3F34F0413F0010F56
:10283C0001D00134A4B2A402A4B2C2F80044D8E777
:10284C00C3F34F0413F0010F01D00134A4B2A4025E
:10285C00A4B2C2F80044D8E6012A7FF4D6AEB0F890
:10286C0050200C7802EBC402023200EB4202C2F898
:10287C000034CAE601335B1000EB420202F58062C1
:10288C0004E0106821F8020B013B0432002BF8D154
:10289C00704710B5D0F81832D0F8204212314901E7
:1028AC00621852686158511AD3F80C220A44C3F8C2
:1028BC000C22D0F818224AB1D0F81C22D26803F5A9
:1028CC000371D3F804029047002010BD0220FCE7EE
:1028DC0010B5D0F81842D0F81C325BB194F8000255
:1028EC00FF2807D09B6894F8012221469847FF23C4
:1028FC0084F80032002010BD50230380004870473C
:10290C000C00002050230380004870475C0000201E
:10291C005023038000487047AC0000200A2303803A
:10292C0000487047FC00002038B50446D0F8185217
:10293C00D5F81412054801F051F8D4F818321BB12F
:10294C000020C5F8140238BD0220FCE744490008F9
:10295C0070B505460C46D0F818620B7813F060027F
:10296C0025D0202A07D1CA883AB9D0F81C329B68E6
:10297C00002248789847002070BD13F0800F0BD0D0
:10298C00D0F81C329B68314660789847E288314613
:10299C00284600F07DFCEEE74B7886F80032CB88B9
:1029AC0086F80132CA88314600F087FCE3E74B78A1
:1029BC000A2BE0D10122024900F06AFCDBE700BFE0
:1029CC000802002010B50446812100F0BEFE012152
:1029DC00204600F0BAFE8221204600F0B6FED4F864
:1029EC00183253B1D4F81C325B689847D4F81802EB
:1029FC0000F016FF0023C4F81832002010BD38B5C3
:102A0C000446037C7BBB4FF400730222812100F04F
:102A1C008BFE4FF4007302220121204600F084FE4D
:102A2C00082303228221204600F07EFE4FF407701B
:102A3C0000F0F2FE0546C4F8180250B3D4F81C326C
:102A4C001B6898470023C5F81432C5F81832237C4C
:102A5C00ABB1B5F80C32D5F804220121204600F0B8
:102A6C00CDFE002038BD40230222812100F05CFE07
:102A7C00402302220121204600F056FED0E7B5F893
:102A8C000C32D5F804220121204600F0B7FE0020BC
:102A9C00E8E70120E6E719B1C0F81C1200207047E6
:102AAC0002207047D0F81832C3F80812C3F810226D
:102ABC0000207047D0F81832C3F80412C3F80C2267
:102ACC0000207047D0F818228AB108B5D2F8143219
:102ADC000BB1012008BD0123C2F81432B2F8103238
:102AEC00D2F80822822100F07BFE0020F2E70220BF
:102AFC007047D0F81822A2B108B5037C43B1B2F8E4
:102B0C000C32D2F80422012100F078FE002008BD1E
:102B1C00B2F80C32D2F80422012100F06FFE002032
:102B2C00F5E70220704798B108B50346D0F81402B7
:102B3C0010B10020C3F8140209B1C3F810121846E2
:102B4C00012380F8FC31027000F096FD002008BDD6
:102B5C000220704719B1C0F81412002070470220EF
:102B6C00704708B500F0D2FD002008BD08B5D0F8BC
:102B7C00143233B11B68984708B9002008BD0220F5
:102B8C00FCE70220FAE708B5D0F814325B689847E6
:102B9C00002008BD38B5044600F50275284600F043
:102BAC000CF90123C4F8F431B4F80E32C4F8F8313E
:102BBC0094F8081201F01F03012B0ED03BB1022B2D
:102BCC0010D001F08001204600F0CDFD03E0294635
:102BDC00204600F074FA002038BD2946204600F04B
:102BEC0092FAF8E72946204600F0A9FAF3E710B567
:102BFC00044621BB1346D0F8F421032A01D000204F
:102C0C0010BDD0F80C11D0F8102191420CD8D0F88E
:102C1C0014321B6923B190F8FC21032A00D1984788
:102C2C00204600F061FBEAE7891AC0F80C118A42D1
:102C3C0028BF0A4692B2194600F04EFBDFE70A465F
:102C4C00D0F814329B69002BD9D090F8FC110329D1
:102C5C00D5D111469847D2E710B50446002946D184
:102C6C001346D0F8F421022A05D094F80032012B37
:102C7C0039D0002010BDC169026A914219D881690E
:102C8C00B1FBF2F302FB13132BB98A4203D8D0F831
:102C9C00F83199421AD3D4F81432DB682BB194F87A
:102CAC00FC21032A01D120469847204600F027FB3F
:102CBC00DBE78A1AC26192B2194600F0F6FA0023D9
:102CCC001A461946204600F099FDCEE7002211461F
:102CDC0000F0EBFA0021C4F8F8110B460A46204626
:102CEC0000F08CFDC1E7002384F80032C1E70A46EE
:102CFC00D0F814325B69002BBBD090F8FC1103297F
:102D0C00B7D111469847B4E738B5044640230022A2
:102D1C00114600F009FD4025C4F810512B46002245
:102D2C008021204600F000FD2562012384F8FC314F
:102D3C00D4F818322BB1D4F814325B6821792046C0
:102D4C009847002038BD01740020704790F8FC3182
:102D5C0080F8FD31042380F8FC310020704790F896
:102D6C00FD3180F8FC310020704708B590F8FC313B
:102D7C00032B01D0002008BDD0F81432DB69002BE6
:102D8C00F8D09847F6E7002302E00133DBB20130BC
:102D9C000278002AF9D1184670474B88012B0BD1C9
:102DAC0010B50446C0F80432D0F814329B6898472A
:102DBC00204600F099FA10BD70470B7803704B78E1
:102DCC0043708B78CA7803EB022343800B794A79E2
:102DDC0003EB022383808B79CA7903EB0223C38034
:102DEC00704710B50446802100F0BDFC0021204640
:102DFC0000F0B9FC10BD30B583B004460D464A88CE
:102E0C00130A013B062B00F28A80DFE803F004135F
:102E1C002788886C7900D0F810321B680DF10601F8
:102E2C00007C9847BDF8062012B1EB88002B7AD1B4
:102E3C0003B030BD037C43B9D0F814329B6A0DF15A
:102E4C000600984702234370ECE7D0F81432DB6A93
:102E5C000DF10600984702234370E3E7D2B2062A2D
:102E6C003DD8DFE802F0040C141C242C3400D0F8FC
:102E7C0010325B680DF10601007C9847D2E7D0F860
:102E8C0010329B680DF10601007C9847CAE7D0F818
:102E9C001032DB680DF10601007C9847C2E7D0F8D0
:102EAC0010321B690DF10601007C9847BAE7D0F887
:102EBC0010325B690DF10601007C9847B2E7D0F83F
:102ECC0010329B690DF10601007C9847AAE7D0F8F7
:102EDC001032DB690DF10601007C9847A2E7294608
:102EEC00FFF77FFFA4E7037C33B9D0F814325B6B98
:102EFC000DF10600984795E72946FFF772FF97E713
:102F0C00037C43B9D0F814321B6B0DF106009847C3
:102F1C000723437086E72946FFF763FF88E72946B6
:102F2C00FFF75FFF84E79A4228BF1A46ADF80620E8
:102F3C000146204600F0ACF97AE738B504468B8898
:102F4C00E3B9CB88D3B98D7805F07F0590F8FC31C7
:102F5C00032B0CD080F8FE51294600F033FC2046A0
:102F6C0000F0C2F935B1022384F8FC3109E0FFF717
:102F7C0038FF06E0012384F8FC3102E02046FFF71D
:102F8C0030FF38BD38B504460D468978254B19708D
:102F9C00012909D890F8FC31022B09D0032B1CD045
:102FAC002946FFF71EFF02E02946FFF71AFF38BD3E
:102FBC0081B14160032380F8FC31FFF7D7FD022873
:102FCC0003D0204600F090F9F1E729462046FFF7A0
:102FDC0008FFECE700F088F9E9E789B1436899420A
:102FEC001DD0D9B2FFF7CFFD0E4B1978616020468A
:102FFC00FFF7BCFD02280DD0204600F075F9D6E78E
:10300C00022380F8FC314160FFF7BDFD204600F043
:10301C006BF9CCE729462046FFF7E3FEC7E700F043
:10302C0063F9C4E70902002008B5CB88012B08D14D
:10303C0090F8FC31022B07D0032B0DD0FFF7D1FEFB
:10304C0001E0FFF7CEFE08BD0146002341F8083F22
:10305C00012200F01DF9F6E70122011D00F018F91C
:10306C00F1E708B590F8FC31023B012B0CD8012399
:10307C00C360D0F804320BB10323C360022200F109
:10308C000C0100F005F908BDFFF7ABFEFBE710B52E
:10309C00044690F8FC31023B012B0DD84B88012BD8
:1030AC0009D10023C0F80432D0F814329B68984739
:1030BC00204600F019F910BDFFF793FEFBE708B5A9
:1030CC004B78092B1CD8DFE803F012181B151B09D1
:1030DC00051B0F0CFFF78FFE002008BDFFF72DFF1F
:1030EC00FAE7FFF74FFFF7E7FFF79EFFF4E7FFF76D
:1030FC00B8FFF1E7FFF751FEEEE7FFF7C8FFEBE78C
:10310C00FFF76FFEE8E738B504460D4690F8FC3142
:10311C00032B11D10B79012B0BD8D0F814329B68EF
:10312C009847EB880BB1002038BD204600F0DCF846
:10313C00F9E7FFF756FEF6E7FFF753FEF3E738B56E
:10314C0005460C468A880B7803F06003202B05D1CA
:10315C00D0F814329B689847002038BDD1B2637800
:10316C00012B25D0002B47D0032BF5D190F8FC3147
:10317C00022B05D0032B0AD02146FFF732FEEBE7DA
:10318C000029E9D08029E7D000F0EDFAE4E7638864
:10319C0023B919B1802901D000F0E5FAD5F8143221
:1031AC009B68214628469847284600F09DF8D3E7AF
:1031BC0090F8FC31022B05D0032B0AD02146FFF7E7
:1031CC0010FEC9E70029C7D08029C5D000F0CBFA82
:1031DC00C2E76388002BBFD111F07F0F03D12846C3
:1031EC0000F082F8B8E700F0CCFAD5F814329B68FE
:1031FC00214628469847F2E790F8FC31022B05D07F
:10320C00032B09D02146FFF7ECFDA5E711F07F0F4A
:10321C00A2D000F0A8FA9FE712F0800F11D101F0B4
:10322C007F04103400EB04140434284600F0B7FA81
:10323C0070B10123236002222146284600F028F8B1
:10324C008AE701F07F04013400EB04140434ECE74A
:10325C0000232360EFE7D0B170B50D461646044647
:10326C00FFF791FD0130400080B2308028700323BD
:10327C006B70022307E001345A1CD2B2E9540233BA
:10328C00DBB20021A95421780029F4D170BD70471C
:10329C0010B513460222C0F8F4218361C3610A46BB
:1032AC00002100F09DFA002010BD08B513460A4617
:1032BC00002100F095FA002008BD10B5134603223A
:1032CC00C0F8F421C0F80831C0F80C310A460021CE
:1032DC0000F094FA002010BD08B513460A460021F0
:1032EC0000F08CFA002008BD08B50423C0F8F431B6
:1032FC0000231A46194600F073FA002008BD08B5E1
:10330C000523C0F8F43100231A46194600F076FA6A
:10331C00002008BD10B5094C002209492046FFF7D2
:10332C0002FC08492046FFF715FC07492046FFF729
:10333C00B2FB2046FFF715FC10BD00BFB4100020F7
:10334C006801002008010020400100200020704787
:10335C0010B5442827D8DFE800F023282626262697
:10336C0026262626262626262626262626262626F1
:10337C0026262626262626262626262626262626E1
:10338C0026262626262626262626262626262626D1
:10339C00262626262626262626262C30343840009D
:1033AC00104800F01BFB002010BD0F4800F016FB6E
:1033BC00F9E70E4800F012FBF5E70D4800F00EFBA4
:1033CC00F1E70C4800F00AFBEDE70C460A4800F068
:1033DC0005FB6288094B1A80E5E7094800F0FEFA04
:1033EC00E1E700BF5449000880490008AC490008D7
:1033FC00D8490008144A0008504A00083C0A00202A
:10340C00784A000870B584B005460E462A4B1B78E6
:10341C00012B1FD0284B01221A70284B1860284B07
:10342C0019603168274800F0D9FA0024CDF80B4018
:10343C00CDF8034028680290AB88ADF80C302B46D1
:10344C0053F8060F00909B88ADF804301E4800F02E
:10345C00C5FA0BE01D4800F0C1FAE2E704AB2344C7
:10346C0013F8081C1A4800F0B9FA0134052CF5DDE4
:10347C00184800F0B3FA002407E004AB234413F817
:10348C00101C134800F0AAFA0134052CF5DD124883
:10349C0000F0A4FA0024084B1C7040F2EA5232608F
:1034AC000E4E29463046FFF705FB3046FFF721FB51
:1034BC00204604B070BD00BF44040020380A002030
:1034CC0048040020B04A0008C84A00089C4A00087A
:1034DC00D44A0008DC4A0008984A0008B4100020BE
:1034EC0010B5074C002207492046FFF7DBFA40F2E3
:1034FC00EA5205492046FFF7DDFA002010BD00BF57
:10350C00B4100020800A00204C040020094BD3F892
:10351C001832D3F814320BB10120704710B50A469B
:10352C000146044C2046FFF7BDFA2046FFF7CAFAC5
:10353C0010BD00BFB410002008B5074BA1221A70B3
:10354C0000225A709A80DA805880044A10800C212C
:10355C001846FFF7DBFF08BD0C020020AC10002062
:10356C000268204B9A4200D0704710B588B01E4CB0
:10357C00A36943F00403A361A36903F0040301935B
:10358C00019B0123069303230793A36943F01003C4
:10359C00A361A36903F010030293029B4FF48053C1
:1035AC0004931123059304A91048FDF7E7F8E36988
:1035BC0043F40003E361E36903F400030393039B07
:1035CC00002211461320FDF721F81320FDF752F8C5
:1035DC00002211461420FDF719F81420FDF74AF8C3
:1035EC0008B010BD005C004000100240001001400B
:1035FC0008B500F22C41D0F85C04FFF7CBFA08BDFB
:10360C0008B500EB4113D3F83C22D0F85C04FFF76B
:10361C00EEFA08BD08B500EB4113DA6BD0F85C0488
:10362C00FFF71AFB08BD08B5D0F85C04FFF79DFB4B
:10363C0008BD10B504460121D0F85C04FFF783FBEC
:10364C00D4F85C04FFF760FB10BD000010B5044615
:10365C00D0F85C04FFF77AFBA36923B1024A136923
:10366C0043F00603136110BD00ED00E008B5D0F87F
:10367C005C04FFF774FB08BD10B504462048C0F885
:10368C005C44C4F820021F4B0360082343600223F0
:10369C0083600323C36000238361C3610362FDF76E
:1036AC0059F930BB182300221146D4F82002FDF73B
:1036BC009BFD582300228021D4F82002FDF794FDB5
:1036CC00C02300228121D4F82002FDF78DFD4FF498
:1036DC00887300220121D4F82002FDF785FD4FF4F8
:1036EC00807300228221D4F82002FDF77DFD00209A
:1036FC0010BD40F237110448FCF73AFDD2E700BF89
:10370C00D8120020005C0040EC4A000808B5D0F844
:10371C002002FDF78AF918B1022803D0022008BD57
:10372C000020FCE70120FAE710B51C4613462246A0
:10373C00D0F82002FDF7A4F918B1022803D002201A
:10374C0010BD0020FCE70120FAE708B5D0F82002F4
:10375C00FDF7BFF918B1022803D0022008BD0020E4
:10376C00FCE70120FAE708B5D0F82002FDF7E7FCEA
:10377C0018B1022803D0022008BD0020FCE701206C
:10378C00FAE708B5D0F82002FDF707FD18B10228BA
:10379C0003D0022008BD0020FCE70120FAE7D0F896
:1037AC00203211F0800F06D101F07F0103EB4111A3
:1037BC0091F82A02704701F07F0103EB411191F857
:1037CC002A00704708B5D0F82002FDF745F918B16A
:1037DC00022803D0022008BD0020FCE70120FAE7F4
:1037EC0008B5D0F82002FDF7BAF918B1022803D0B9
:1037FC00022008BD0020FCE70120FAE708B5D0F84C
:10380C002002FDF78DF918B1022803D0022008BD63
:10381C000020FCE70120FAE700487047180200205E
:10382C007047000008B5012906D001224FF48051E1
:10383C000548FDF789F808BD00224FF48051024875
:10384C00FDF782F8F7E700BF0010014012230B8050
:10385C00004870475001002004230B80004870473B
:10386C006401002008B50A4628B105490548FFF750
:10387C00F2FC034808BD02490248FFF7ECFCF8E7EC
:10388C0038170020084B000810B5044C0A46214696
:10389C000348FFF7E0FC204610BD00BF381700209E
:1038AC00204B000808B50A4628B105490548FFF722
:1038BC00D2FC034808BD02490248FFF7CCFCF8E7EC
:1038CC0038170020344B000808B50A4628B10549C2
:1038DC000548FFF7C0FC034808BD02490248FFF742
:1038EC00BAFCF8E738170020444B000808B50A4624
:1038FC0028B105490548FFF7AEFC034808BD02494D
:10390C000248FFF7A8FCF8E738170020504B0008D6
:10391C0010B5044C0A4621460348FFF79CFC204690
:10392C0010BD00BF38170020604B0008002103E0D9
:10393C000B4B5B58435004310A480B4B42189A42CC
:10394C00F6D30A4A02E0002342F8043B084B9A42A1
:10395C00F9D3FCF76FFD00F015F8FCF75BFC704732
:10396C00104C000800000020EC010020EC010020AD
:10397C003C190020FEE70000014B1868704700BF9F
:10398C008801002070B500250C4E0D4CA41BA41012
:10399C00A54209D100F044FF00250A4E0A4CA41B95
:1039AC00A410A54205D170BD56F8253098470135B5
:1039BC00EEE756F8253098470135F2E7084C000839
:1039CC00084C0008084C00080C4C00080346024444
:1039DC00934200D1704703F8011BF9E70FB40A4B6F
:1039EC0013B51C6824B1A36913B9204600F04EF836
:1039FC0005AB049AA1682046019300F053F902B07C
:103A0C00BDE8104004B0704788010020002310B5B9
:103A1C000446C0E90033836081814366C281C0E9FA
:103A2C0004338361194608225C30FFF7CFFF054B46
:103A3C0024626362044BA362044BE362044B236372
:103A4C0010BD00BF094200082B4200086342000869
:103A5C0087420008014900F085B800BF61450008A5
:103A6C0070B568254A1E55430E4605F1740100F0E9
:103A7C0097F8044640B10021C0E900160C30A06054
:103A8C0005F16802FFF7A2FF204670BD836910B5EF
:103A9C00044633BBC0E912330365124B124A1B6850
:103AAC008262984204BF0123836100F01FF86060BA
:103ABC00204600F01BF8A060204600F017F800220A
:103ACC00E06004216068FFF7A1FF01220921A068D2
:103ADC00FFF79CFF02221221E068FFF797FF0123FA
:103AEC00A36110BD704B0008613A0008F8B51B4B80
:103AFC0007461E68B36913B93046FFF7C7FF48364F
:103B0C00D6E90134013B03D5336833B13668F7E7A6
:103B1C00B4F90C506DB16834F4E704213846FFF762
:103B2C009FFF30600028F1D10C2304463B602046F7
:103B3C00F8BD0B4B6566C4E90055A560C4E90335B7
:103B4C00C4E905550822294604F15C00FFF73EFF45
:103B5C00C4E90D55C4E91255E9E700BF704B0008E4
:103B6C000100FFFF2DE9F84380468946002600F14D
:103B7C00480414B93046BDE8F883D4E90175013F17
:103B8C0001D52468F5E7AB89012B07D9B5F90E30BF
:103B9C00013303D029464046C84706436835EEE753
:103BAC0070B5CD1C25F0030508350C2D38BF0C2540
:103BBC00002D064601DBA94203D90C2333600020FB
:103BCC0070BD00F075FD214A1468214691B9204C56
:103BDC0023681BB9304600F001FB206029463046B3
:103BEC0000F0FCFA431C24D10C233046336000F067
:103BFC0060FDE4E70B685B1B18D40B2B0FD90B6033
:103C0C00CC18CD50304600F054FD04F10B00231DB0
:103C1C0020F00700C31AD3D05A42E250D0E74B68C9
:103C2C008C4216BF636013600C46EBE70C46496888
:103C3C00CCE7C41C24F00304A04205D0211A304662
:103C4C0000F0CCFA0130CFD02560DBE7380400203F
:103C5C003C040020936810B4013B002B936007DAFE
:103C6C009469A34201DB0A2902D110BC00F00ABB03
:103C7C001368581C10601970084610BC7047F8B5D2
:103C8C0006460F461446D518AC4201D1002007E079
:103C9C003A4614F8011B3046FFF7DCFF431CF3D106
:103CAC00F8BD00002DE9F04F9DB00C46174603936C
:103CBC00064618B183690BB9FFF7E8FE7B4B9C42B3
:103CCC0057D17468A38918075DD52369002B5AD086
:103CDC000023099320238DF8293030234FF0010B5A
:103CEC008DF82A30B846454615F8013B0BB1252B0B
:103CFC0054D1B8EB070A0BD053463A46214630460E
:103D0C00FFF7BDFF013000F0C280099B53440993BB
:103D1C0098F80030002B00F0BA8000234FF0FF32EF
:103D2C00CDE90523049307938DF853301A93A846D5
:103D3C00052218F8011B5E4800F0ACFC049B78BB14
:103D4C00D90644BF20228DF853201A0744BF2B22DA
:103D5C008DF853202A782A2A2AD0A84600200A2532
:103D6C00079A414611F8013B303B092B69D960B3E6
:103D7C0024E0504B9C4201D1B468A3E74E4B9C42CB
:103D8C0008BFF4689EE72146304600F0DFFA0028B1
:103D9C009ED04FF0FF301DB0BDE8F08FA846A2E7D3
:103DAC00434A4546801A0BFA00F018430490BEE7CC
:103DBC00039A111D12680391002A01DB079204E09B
:103DCC00524243F002030792049398F800302E2BD2
:103DDC000ED198F801302A2B38D1039B08F1020838
:103DEC001A1D1B680392002BB8BF4FF0FF330593CD
:103DFC00324D032298F80010284600F04BFC40B1DD
:103E0C004023401B03FA00F0049B08F10108034314
:103E1C00049398F800100622294808F101078DF840
:103E2C00281000F037FC002837D0264B1BBB039B17
:103E3C00073323F0070308330393099B4B4409937F
:103E4C0050E705FB0232012088468AE700230A2549
:103E5C00194608F101080593404610F8012B303A39
:103E6C00092A03D9002BC3D00591C1E705FB012119
:103E7C0001238046F0E703AB00932246124B04A9C2
:103E8C003046AFF30080B0F1FF3F8146D5D1A38916
:103E9C005B063FF57EAF09987DE703AB00932246A6
:103EAC00094B04A9304600F087F8ECE7944B000866
:103EBC00D44B0008B44B0008744B0008DA4B0008D4
:103ECC00DE4B0008000000008B3C00082DE9F04799
:103EDC0091461F468A680B6906469342B8BF134643
:103EEC00C9F8003091F843200C46DDF8208012B15F
:103EFC000133C9F800302368990642BFD9F8003065
:103F0C000233C9F80030256815F0060507D104F115
:103F1C00190AE368D9F800209B1AAB4229DC94F803
:103F2C0043302268003318BF012392062ED404F1CB
:103F3C00430239463046C047013021D02368E5683A
:103F4C0003F00603042B18BF0025D9F800204FF00E
:103F5C00000908BFAD1AA368226908BF25EAE575F8
:103F6C009342C4BF9B1AED181A344D451AD1002048
:103F7C0008E00123524639463046C047013003D190
:103F8C004FF0FF30BDE8F0870135C2E73020E11873
:103F9C0081F843005A1C94F845102244023382F8ED
:103FAC004310C4E70123224639463046C04701304E
:103FBC00E6D009F10109D8E72DE9F04301F1430CF2
:103FCC000C46097E85B06E291746064698460C9A13
:103FDC0000F0B38022D8632936D00AD8002900F02B
:103FEC00B980582900F0838004F1420584F842100E
:103FFC0032E0642901D06929F6D1206813680506DE
:10400C0003F104012AD51B681160002B03DA2D2261
:10401C005B4284F843206F480A2239E0732900F090
:10402C009D8008D86F2920D07029DDD1236843F0FA
:10403C002003236003E0752917D07829D4D1782385
:10404C00654884F8453055E0136804F14205191DA4
:10405C001B68116084F8423001238CE01B6810F05F
:10406C00400F116018BF1BB2CFE713682568181DED
:10407C001060280601D51B6802E06806FBD51B887A
:10408C006F2914BF0A2208225248002184F84310D9
:10409C006568002DA560C0F29580216821F00401AF
:1040AC002160002B3DD1002D40F08E806546082A02
:1040BC000BD12368DB0708D5236962689A42DEBFFF
:1040CC00302305F8013C05F1FF35ACEB050323610A
:1040DC00CDF800803B4603AA21463046FFF7F6FE9A
:1040EC0001304DD14FF0FF3005B0BDE8F0833948B9
:1040FC0084F84510136821681D1D1B6815600A069D
:10410C000BD5CA0744BF41F0200121601BB92268BE
:10411C0022F0200222601022B7E74D0648BF9BB266
:10412C00EFE76546B3FBF2F102FB1133C35C05F814
:10413C00013D0B460029F5D1B9E713682568181D18
:10414C006169106028061B6801D5196002E06A06D7
:10415C00FBD51980002365462361B9E71368191D47
:10416C0011601D6862680021284600F093FA08B1BE
:10417C00401B606063682361002384F84330A7E729
:10418C0023692A4639463046C0470130AAD02368F5
:10419C009B0713D4E068039B9842B8BF1846A3E76B
:1041AC0001234A4639463046C04701309AD0013582
:1041BC00E368039A9B1AAB42F2DCEBE7002504F1AF
:1041CC001909F5E7002BACD1037804F1420584F80A
:1041DC0042306CE7E54B0008F64B000838B500237D
:1041EC00054C05460846236000F00CFB431C02D12D
:1041FC00236803B12B6038BD3819002010B50C466C
:10420C00B1F90E1000F0A2FA0028ABBF636DA389C0
:10421C001B1823F48053ACBF6365A38110BD2DE93B
:10422C00F0411F468B890546DB050C46164605D525
:10423C0002230022B1F90E1000F0B6F9A389324620
:10424C0023F48053A381B4F90E103B462846BDE8F5
:10425C00F04100F069B810B50C46B1F90E1000F041
:10426C00A3F9431CA38915BF606523F4805343F461
:10427C008053A38118BFA38110BDB1F90E1000F0BB
:10428C00D3B80000F8B50E461446054618B183693C
:10429C000BB9FFF7FBFB214B9C422AD16C68A3693D
:1042AC00A360A3891A072ED5236963B323692068F9
:1042BC00F6B2C01A63693746834204DC21462846AD
:1042CC0000F048F928BBA3680130013BA3602368C8
:1042DC005A1C22601E706369834204D0A389DB07D9
:1042EC0019D50A2E17D12146284600F033F990B182
:1042FC000FE00B4B9C4201D1AC68D0E7094B9C42C0
:10430C0008BFEC68CBE72146284600F01FF80028D0
:10431C00CCD04FF0FF373846F8BD00BF944B0008A7
:10432C00B44B0008744B000838B5054608461146D6
:10433C000022054C22601A46FCF7A2F8431C02D15D
:10434C00236803B12B6038BD38190020324B70B58F
:10435C001D6806460C4625B1AB6913B92846FFF714
:10436C0095FB2E4B9C420FD16C68B4F90C309AB271
:10437C0015072CD4D00611D40922326043F0400327
:10438C00A3814FF0FF303EE0254B9C4201D1AC683D
:10439C00EBE7244B9C4208BFEC68E6E7510712D5CB
:1043AC00616B41B104F14403994202D0304600F0F4
:1043BC0081F900236363A38923F02403A3810023E1
:1043CC00636023692360A38943F00803A3812369F5
:1043DC004BB9A38903F42073B3F5007F03D02146B6
:1043EC00304600F017F9A28912F001030CD000231B
:1043FC00A36063695B42A361236953B9B4F90C30C0
:10440C0013F08000BAD170BD920758BF6369A360E6
:10441C00F2E70020F7E700BF88010020944B00086A
:10442C00B44B0008744B000838B50023054C054606
:10443C000846236000F0BEF9431C02D1236803B187
:10444C002B6038BD381900208A892DE9F0410546CA
:10445C0010070C4658D44B68002B05DC0B6C002B5A
:10446C0002DC0020BDE8F081E66A002EF9D00023C2
:10447C0012F480522F68216A2B6032D0606DA389B0
:10448C005A0705D56368C01A636B0BB1236CC01A4D
:10449C0000230246E66A216A2846B047431CA389DA
:1044AC0006D129681D2948D8294ACA40D60744D5BF
:1044BC00002262602269D904226004D5421C01D119
:1044CC002B6803B96065616B2F600029C9D004F1BA
:1044DC004403994202D0284600F0ECF800206063B7
:1044EC00C0E701232846B047411CC8D12B68002BDC
:1044FC00C5D01D2B01D0162B01D12F60B1E7A3899C
:10450C0043F04003A381ADE70F69002FA9D09307B7
:10451C0018BF00230E6808BF4B69A6EB07080F6095
:10452C008B60B8F1000F9CDD43463A46216A284661
:10453C00A66AB047002806DCA38943F04003A38198
:10454C004FF0FF308EE70744A8EB0008E9E700BF07
:10455C000100402038B50B6905460C46DBB118B19B
:10456C0083690BB9FFF792FA0C4B9C4209D16C682A
:10457C00B4F90C307BB121462846BDE83840FFF732
:10458C0063BF074B9C4201D1AC68F1E7054B9C42E1
:10459C0008BFEC68ECE7002038BD00BF944B000866
:1045AC00B44B0008744B000838B505460846114654
:1045BC000022054C22601A4600F014F9431C02D16B
:1045CC00236803B12B6038BD3819002070B50E4636
:1045DC00B1F90E1096B0002914461D4607DA0023D7
:1045EC002B60B3891A0610D44FF480630EE06A4630
:1045FC0000F0BEF80028F2DB019A02F47042A2F53A
:10460C0000535A425A412A60EEE7402300202360AF
:10461C0016B070BD8B8973B59D0706460C4607D541
:10462C0004F14703236023610123636102B070BD71
:10463C0001AB6A46FFF7CAFF009905463046FFF703
:10464C00AFFA48B9B4F90C309A05EFD423F0030350
:10465C0043F00203A381E3E70D4BB362A38920600F
:10466C0043F08003A381009B20616361019B5BB1DC
:10467C00B4F90E10304600F08DF828B1A38923F060
:10468C00030343F00103A381A3891D43A581CDE757
:10469C00613A000810B5C9B202449042034601D1F8
:1046AC00002303E01C7801308C42F6D1184610BD73
:1046BC007047704738B50546002943D051F8043C83
:1046CC000C1F002BB8BFE418FFF7F2FF1E4A13684B
:1046DC00104633B9636014602846BDE83840FFF7D4
:1046EC00E8BFA3420BD921686218934201BF1A6834
:1046FC005B685218226063600460EDE713465A68E9
:10470C000AB1A242FAD919685818A0420BD12068F4
:10471C000144581882421960DED110685268014475
:10472C0019605A60D8E702D90C232B60D4E72068B3
:10473C0021188A4201BF1168526809182160626011
:10474C005C60C9E738BD00BF3804002038B50546A9
:10475C00084611460022054C22601A4600F04AF821
:10476C00431C02D1236803B12B6038BD38190020DB
:10477C0038B50023064C054608461146236000F068
:10478C0021F8431C02D1236803B12B6038BD00BF54
:10479C003819002038B50023054C0546084623601F
:1047AC0000F018F8431C02D1236803B12B6038BD0C
:1047BC00381900205822024B4FF0FF301A60704716
:1047CC00381900205822024B4FF0FF301A60704706
:1047DC00381900205822024B00201A60704700BF85
:1047EC00381900205822024B4FF0FF301A607047E6
:1047FC00381900205822024B4FF0FF301A607047D6
:10480C0038190020044A05491368002B08BF0B46D1
:10481C0018441060184670474004002040190020CE
:10482C00F8B500BFF8BC08BC9E467047F8B500BF91
:08483C00F8BC08BC9E46704761
:10484400000000000000000001020304060708093C
:10485400000000000102030402030405060708091E
:104864000A0B0C0D0E0F1010010200002E2E2F4308
:104874006F72652F5372632F6D61696E2E63000032
:104884005374617274206F66206D61696E206C6F61
:104894006F700A0D000000006661696C6564207425
:1048A4006F206E6F74696679206E6574776F726BB2
:1048B40020646973636F6E6E656374696F6E0A0D4D
:1048C400000000006E6F74696669636174696F6EDD
:1048D40020646973636F6E6E656374696F6E206FB5
:1048E4006B0A0D006661696C656420746F206E6FDD
:1048F40074696679206E6574776F726B20636F6E6E
:104904006E656374696F6E0A0D0000006E6F7469E2
:104914006669636174696F6E20636F6E6E6563743C
:10492400696F6E206F6B200A0D0000002E2E2F433E
:104934006F72652F5372632F756172742E6300005A
:10494400547820656E64204972712025640A0D0034
:104954004344435F53454E445F454E434150535592
:104964004C415445445F434F4D4D414E4420637484
:10497400726C20726563760A0D0000004344435F45
:104984004745545F454E43415053554C415445446B
:104994005F524553504F4E5345206374726C2072DE
:1049A4006563760A0D0000005345545F455448453D
:1049B400524E45545F4D554C5449434153545F4600
:1049C400494C54455253206374726C20726563766B
:1049D4000A0D00005345545F45544845524E455412
:1049E4005F504F5745525F4D414E4147454D454EEF
:1049F400545F5041545445524E5F46494C544552BD
:104A0400206374726C20726563760A0D00000000E6
:104A14004745545F45544845524E45545F504F579F
:104A240045525F4D414E4147454D454E545F5041BF
:104A3400545445524E5F46494C5445522063747257
:104A44006C20726563760A0D000000005345545FC4
:104A540045544845524E45545F5041434B45545F7D
:104A640046494C544552206374726C2072656376D7
:104A74000A0D00004745545F45544845524E45547D
:104A84005F535441544953544943206374726C2016
:104A9400726563760A0D000072656376206275663E
:104AA4006665722062757373790A0D006C656E67B2
:104AB4002065746820726563763A20256C750A0D4A
:104AC400000000006D61632064657374203D200064
:104AD400253032783A0000000A0D6D616320736F4F
:104AE40075726365203D20002E2E2F5553425F447E
:104AF40045564943452F757362645F636F6E662E36
:104B04006300000053544D3332205669727475614A
:104B14006C20436F6D506F727400000053544D69E4
:104B240063726F656C656374726F6E6963730000A2
:104B3400303030303030303030303141000000001F
:104B440043444320436F6E66696700004344432037
:104B5400496E7465726661636500000030303137F8
:104B64003446303835443639000000008C010020CA
:104B74000000000000000000000000000000000031
:104B84000000000000000000000000000000000021
:104B94000000000000000000000000000000000011
:104BA4000000000000000000000000000000000001
:104BB40000000000000000000000000000000000F1
:104BC40000000000000000000000000000000000E1
:104BD400232D302B2000686C4C00656667454647E2
:104BE4000030313233343536373839414243444565
:104BF40046003031323334353637383961626364D4
:044C040065660000E1
:044C0800310100086E
:044C0C000D0100088E
:104C100000A24A0401000000100000000902500038
:104C20000201008032090400000102060000052490
:104C300000100105240600010D240F0600000000ED
:104C4000EA0500000007058203080040090401008E
:104C5000000A00000009040101020A000000070523
:104C600001024000000705810240000009025000D7
:104C7000020100C032090400000102020100052403
:104C8000001001052401000104240202052406008D
:104C9000010705820308001009040100020A000050
:104CA0000007050102000200070581020002000062
:104CB0000000000000000000000000000907500094
:104CC000020104C0320904000001020201000524AF
:104CD000001001052401000104240202052406003D
:104CE00001070582030800FF09040100020A000011
:104CF0000007050102400000070581024000000096
:104D00000000000000000000000000000A06000291
:104D100000000040010000000B2A0008D129000813
:104D20005D29000800000000DD2800083529000882
:104D30009F280008000000000000000000000000A4
:104D400011290008052900081D2900082929000843
:104D5000ED340008593300085D33000811340008B1
:104D600012010002020200408304405700020102C7
:104D700003010000040309045938000865380008DD
:104D80009538000871380008B1380008D538000897
:104D9000F93800081D3900088C01002000000000CF
:104DA000944B0008B44B0008744B0008000000004E
:104DB00000000000000000000000000000000000F3
:104DC00000000000000000000000000000000000E3
:104DD00000000000000000000000000000000000D3
:104DE00000000000000000000000000000000000C3
:0C4DF000000000000000000000000000B7
:04000005080039397D
:00000001FF
